:100000000CC010C10FC10EC10DC10CC10BC10AC182
:1000100009C108C10060006E800011241FBECFE935
:10002000CDBFE4E1F0E040E017C0B591A591359176
:100030002591059107FD0CC095918591EF01F92F50
:10004000E82F05900D92A217B307D9F7FE0104C05F
:100050001D92A217B307E1F7E931F40731F703D096
:0600600000C0F894FFCF80
:100066009CE197BB88E188BB2FE936E841E0215047
:1000760030404040E1F700C0000024E128BB2FE9F2
:1000860036E841E0215030404040E1F700C0000032
:100096002CE028BB2FE936E841E0215030404040B3
:1000A600E1F700C0000098BB9FE72AE136E09150D7
:1000B60020403040E1F700C0000088BBB09B2AC05A
:1000C6008091660090916700892B21F581E090E090
:1000D600909367008093660080916400909165001C
:1000E6008330910534F40196909365008093640003
:1000F60006C081E090E0909365008093640073D021
:100106004FE58AEE90E0415080409040E1F700C014
:100116000000D4CFB09B1BC0809166009091670011
:100126000197A9F480916C0090916D0001969093CF
:100136006D0080936C00883E934011F41AD053D022
:1001460083EC99E00197F1F700C00000B7CFB099B2
:10015600B5CF8091660090916700019709F0AECF08
:10016600109267001092660010926D0010926C005B
:02017600A5CF13
:1001780080E090E033C028E128BBE7EAF1E6319758
:10018800F1F700C0000024E128BBE7EAF1E6319767
:10019800F1F700C000002CE028BBE7EAF1E6319750
:1001A800F1F700C0000024E028BBE7EAF1E6319748
:1001B800F1F700C0000028E028BBE7EAF1E6319734
:1001C800F1F700C0000020E128BBE7EAF1E631972B
:1001D800F1F700C000002CE128BB0196843191059D
:0401E80054F2089530
:1001EC0080916400909165008230910541F08330DC
:1001FC00910541F0019749F484E188BB089580E1B1
:10020C0088BB089588E188BB089581E090E09093C5
:08021C00650080936400089561
:02022400EDCE1D
:00000001FF
